{
  "contractName": "Test",
  "abi": [
    {
      "inputs": [
        {
          "internalType": "uint256",
          "name": "testNumber",
          "type": "uint256"
        }
      ],
      "name": "test",
      "outputs": [
        {
          "internalType": "uint256",
          "name": "data",
          "type": "uint256"
        }
      ],
      "stateMutability": "pure",
      "type": "function"
    },
    {
      "inputs": [],
      "name": "test2",
      "outputs": [
        {
          "internalType": "uint256",
          "name": "data",
          "type": "uint256"
        }
      ],
      "stateMutability": "pure",
      "type": "function"
    }
  ],
  "bytecode": "0x608060405234801561001057600080fd5b506101ac806100206000396000f3fe608060405234801561001057600080fd5b50600436106100365760003560e01c806329e99f071461003b57806366e41cb71461006b575b600080fd5b6100556004803603810190610050919061011f565b610089565b604051610062919061015b565b60405180910390f35b6100736100c9565b604051610080919061015b565b60405180910390f35b6000609060405260006040518060600160405280600160ff168152602001600260ff168152602001600360ff168152509050602060900151915050919050565b60006040516468656c6c6f6000820152600081015191505090565b600080fd5b6000819050919050565b6100fc816100e9565b811461010757600080fd5b50565b600081359050610119816100f3565b92915050565b600060208284031215610135576101346100e4565b5b60006101438482850161010a565b91505092915050565b610155816100e9565b82525050565b6000602082019050610170600083018461014c565b9291505056fea2646970667358221220cc3d8b46306ddffffa41c5d2b54b9d80ece3d60217324d7a98466d62b686185564736f6c63430008100033",
  "immutableReferences": {},
  "source": "// SPDX-License-Identifier: MIT\npragma solidity >=0.4.22 <0.9.0;\n\ncontract Test {\n\n    function test(uint testNumber) external pure returns (uint data) {\n\n        // You can write assembly code here!\n        assembly {\n            mstore(0x40, 0x90)\n        }\n\n        uint8[3] memory items = [1,2,3];\n\n\n        assembly {\n            data := mload(add(0x90, 0x20))\n        }\n    }\n\n    function test2() external pure returns (uint data) {\n        \n        assembly {\n            let fmp := mload(0x40)\n            // put hello in ascii on the fmp position\n            mstore(add(fmp, 0x00), 0x68656C6C6F)\n            data := mload(add(fmp, 0x00))\n        }\n\n    }\n}\n\n\n/*\n\nIn the remix: http://remix.ethereum.org/#optimize=false&runs=200&evmVersion=null&version=soljson-v0.8.7+commit.e28d00a7.js\nAnd copying the contract and debugging it, we can obtain details about the machine properties and stacks, memories, etc.\n\nMemory is a chunk of bytes,\n32 bytes\n\n0x0000000000000000000000000000000000000000000000000000000000000080\n\nWe can allocate more memory\n\n0x0:\n0x0000000000000000000000000000000000000000000000000000000000000000\t????????????????????????????????\n0x20:\n0x0000000000000000000000000000000000000000000000000000000000000000\t????????????????????????????????\n0x40:\n0x0000000000000000000000000000000000000000000000000000000000000080 ????????????????????????????\n\nWe can increase that:\n\n0x60\n0x80 \n...\n\n\n\nIf we go to https://emn178.github.io/online-tools/keccak_256.html\nAnd hash the signature function:\ntest(uint256)\nWe will obtain:\n29e99f07 d14aa8d30a12fa0b0789b43183ba1bf6b4a72b95459a3e397cca10d7\nThat the first characters are the same as the Call Data section:\n\n0x29e99f070000000000000000000000000000000000000000000000000000000000000003\nThe rest zeros, are the possible parameters to use on the function.\n\n\n\nWith the items line, we will have:\n0x0:\n0x0000000000000000000000000000000000000000000000000000000000000000\t????????????????????????????????\n0x20:\n0x0000000000000000000000000000000000000000000000000000000000000000\t????????????????????????????????\n0x40:\n0x00000000000000000000000000000000000000000000000000000000000000e0 ????????????????????????????????\n0x60:\n0x0000000000000000000000000000000000000000000000000000000000000000\t????????????????????????????????\n0x80:\n0x0000000000000000000000000000000000000000000000000000000000000001 ????????????????????????????????\n0xa0:\n0x0000000000000000000000000000000000000000000000000000000000000002 ????????????????????????????????\n0xc0:\n0x0000000000000000000000000000000000000000000000000000000000000003 ????????????????????????????????\n0xe0:\n0x0000000000000000000000000000000000000000000000000000000000000001 ???????????????????????????????\n*/\n",
  "sourcePath": "/home/adrian/solidity_course/faucet/contracts/Test.sol",
  "compiler": {
    "name": "solc",
    "version": "0.8.16+commit.07a7930e.Emscripten.clang"
  },
  "schemaVersion": "3.4.9",
  "updatedAt": "2022-12-13T05:31:27.577Z",
  "devdoc": {
    "kind": "dev",
    "methods": {},
    "version": 1
  },
  "userdoc": {
    "kind": "user",
    "methods": {},
    "version": 1
  }
}